:020000040800F2
:1000000000000220C976000821720008257200084D
:1000100035720008457200085572000800000000A3
:10002000000000000000000000000000B1520008C5
:10003000657200080000000051530008B553000825
:100040001977000819770008197700081977000850
:100050001977000819770008197700081977000840
:100060001977000819770008197700081977000830
:100070001977000819770008197700081977000820
:100080001977000819770008197700081977000810
:100090001977000819770008197700081977000800
:1000A00019770008197700081977000819770008F0
:1000B0001977000819770008757200081977000889
:1000C00019770008197700081977000819770008D0
:1000D00019770008197700081977000819770008C0
:1000E00019770008197700081977000819770008B0
:1000F0001977000885720008197700081977000839
:10010000197700081977000819770008197700088F
:10011000197700081977000819770008197700087F
:10012000197700081977000819770008197700086F
:10013000197700081977000819770008197700085F
:1001400019770008197700081977000895720008D8
:10015000197700081977000819770008197700083F
:10016000197700081977000819770008197700082F
:1001700019770008197700081977000800000000B7
:08018000197700081977000847
:1001900010B5054C237833B9044B13B10448AFF3C1
:1001A00000800123237010BD940000200000000097
:1001B000F486000808B5034B1BB103490348AFF3AD
:1001C000008008BD0000000098000020F4860008B0
:1001D00001F0FF01102A2BDB10F0070F08D010F8F8
:1001E000013B013A8B422DD010F0070F42B3F6D1FC
:1001F000F0B441EA012141EA014122F007047FF015
:1002000000070023F0E80256083C85EA010586EA6B
:10021000010685FA47F5A3FA87F586FA47F6A5FAA7
:1002200087F68EB9EED1F0BC01F0FF0102F00702B3
:1002300032B110F8013B013A83EA010313B1F8D15E
:100240000020704701387047002D06BF354603383F
:10025000073815F0010F07D1013015F4807F02BF78
:10026000013015F4C03F0130F0BC0138704700BFC9
:1002700053B94AB9002908BF00281CBF4FF0FF310D
:100280004FF0FF3000F07AB9ADF1080C6DE904CE03
:1002900000F006F8DDF804E0DDE9022304B0704761
:1002A0002DE9F0478C460D460446089E002B51D19F
:1002B0008A4217466DD9B2FA82FEBEF1000F0BD00A
:1002C000CEF1200C01FA0EF520FA0CFC02FA0EF722
:1002D0004CEA050C00FA0EF44FEA174A250CBCFB59
:1002E000FAF81FFA87F90AFB18CC45EA0C4508FB17
:1002F00009F3AB420AD9ED1908F1FF3280F02381EE
:10030000AB4240F22081A8F102083D44ED1AA4B2AC
:10031000B5FBFAF00AFB105544EA054400FB09F965
:10032000A14509D9E41900F1FF3380F00A81A14504
:1003300040F2078102383C44A4EB090440EA08403B
:100340000021002E61D024FA0EF400233460736083
:10035000BDE8F0878B4207D9002E54D0002186E8F3
:1003600021000846BDE8F087B3FA83F1002940F088
:100370008E80AB4202D3824200F2FA80841A65EB8F
:1003800003050120AC46002E3FD086E81010BDE8E2
:10039000F08712B90127B7FBF2F7B7FA87FEBEF173
:1003A000000F34D1EB1B3A0C1FFA87FC0121B3FB81
:1003B000F2F8250C02FB183345EA03450CFB08F361
:1003C000AB4207D9ED1908F1FF3002D2AB4200F27F
:1003D000D1808046ED1AA3B2B5FBF2F002FB1055B6
:1003E00043EA05440CFB00FCA44507D9E41900F1DD
:1003F000FF3302D2A44500F2B8801846A4EB0C04E7
:1004000040EA08409DE731463046BDE8F087CEF12E
:10041000200405FA0EF307FA0EF720FA04F83A0C56
:1004200025FA04F448EA0308B4FBF2F14FEA184550
:1004300002FB11441FFA87FC45EA044501FB0CF35B
:10044000AB4200FA0EF409D9ED1901F1FF3080F04A
:100450008A80AB4240F2878002393D44EB1A1FFA92
:1004600088F5B3FBF2F002FB103345EA034500FBCD
:100470000CF3AB4207D9ED1900F1FF386FD2AB4254
:100480006DD902383D44EB1A40EA01418FE7C1F1D2
:10049000200722FA07F88B4005FA01F448EA030323
:1004A00020FA07FE4FEA134CFD404EEA040EB5FB5E
:1004B000FCF94FEA1E440CFB19551FFA83F844EA75
:1004C000054509FB08F4AC4202FA01F200FA01FA10
:1004D00008D9ED1809F1FF3043D2AC4241D9A9F156
:1004E00002091D442D1B1FFA8EFEB5FBFCF00CFB10
:1004F00010554EEA054400FB08F8A04507D9E4185A
:1005000000F1FF3529D2A04527D902381C4440EA22
:100510000940A4EB0804A0FB02894C45C6464D46A1
:1005200015D312D056B1BAEB0E0364EB050404FAEE
:1005300007F7CB401F43CC40376074600021BDE813
:10054000F0871846F8E69046E0E6C245EAD2B8EBF6
:10055000020E69EB03050138E4E72846D7E7404679
:1005600091E78146BEE7014678E702383C4445E71B
:10057000084608E7A8F102083D442BE7704700BF92
:1005800008B50B4B1A6842F400721A601A6842F4FC
:1005900080621A601A6842F480721A60032000F0C8
:1005A0002FF8002006F0FEFD06F0BAFD002008BD81
:1005B000003C0240034A1168034B1B780B44136054
:1005C000704700BFBC73002000000020014B18687A
:1005D000704700BFBC73002038B50446FFF7F6FF34
:1005E0000546B4F1FF3F02D0044B1B781C44FFF7D3
:1005F000EDFF401B8442FAD838BD00BF0000002048
:1006000010B50446C31E042B0FD80A4AD36823F43E
:10061000E0631B041B0C240204F4E064234343F056
:10062000BF6343F40033D36010BD9221024806F04B
:1006300076FDEAE700ED00E00C87000870B505469E
:100640000C4616460F2A24D80F2C27D81A4BDB68E5
:10065000C3F30223C3F10702042A28BF0422191D91
:10066000062920D9033B012101FA02F2013A144084
:100670009C4001FA03F3013B33401C43002D14DB83
:100680002401E4B205F1604505F5614585F80043B4
:1006900070BDAA21094806F042FDD5E7AB21074805
:1006A00006F03DFDD2E70023DDE705F00F0524014C
:1006B000E4B2034B5C5570BD00ED00E00C87000810
:1006C00014ED00E010B5041E0BDB002C08DB620902
:1006D00004F01F04012303FA04F4044B43F82240FE
:1006E00010BDBE21024806F01AFDEEE700E100E071
:1006F0000C8700082DE9F04383B080460F46B64BC7
:10070000984223D003F5806398421FD003F580639D
:1007100098421BD003F58063984217D003F580639D
:10072000984213D003F5806398420FD003F580639D
:1007300098420BD003F58063984207D003F580639D
:10074000984203D0B321A54806F0E9FC3B689AB271
:1007500012B11B0C1B041BB1B421A04806F0DFFC36
:100760007B68012B22D9112B20D0022B1ED0122BFB
:100770001CD09B4A934219D002F58012934215D0A7
:1007800002F58012934211D0A2F5F81293420DD0D7
:1007900002F58012934209D002F58012934205D0EF
:1007A000032B03D0B5218D4806F0B9FCBB68022BA2
:1007B00001D8002474E0B621884806F0B0FCF8E7C0
:1007C000C821864806F0ABFC80E03B69FBB1092BF1
:1007D0001DD0012B1BD0022B19D0032B17D0042BBB
:1007E00015D0052B13D0062B11D0072B0FD0082BBB
:1007F0000DD00A2B0BD00B2B09D00C2B07D00D2BB7
:1008000005D00F2B03D0E021744806F088FCE108E6
:10081000083158F8213004F0070292000F20904070
:1008200023EA0003386900FA02F2134348F8213042
:1008300079E0072100E00021A9400A430233694919
:1008400041F82320684B1A68F34302EA03017868F1
:1008500010F4803F01D046EA0201634A11605268F9
:1008600003EA0201786810F4003F01D046EA020171
:100870005D4A5160926803EA0201786810F4801FB3
:1008800001D046EA0201584A9160D2681340796863
:1008900011F4001F01D046EA0203534AD360013429
:1008A0000F2C00F295800125A5403B6805EA030660
:1008B000B542F4D17B685A1E012A03D9112B01D00D
:1008C000122B1AD1FB68032B3FF67AAFD8F8083009
:1008D00060000321814023EA0103FA688240134348
:1008E000C8F80830D8F8043023EA05057B68C3F35C
:1008F0000013A3401D43C8F80450D8F80C304FEA49
:100900004409032505FA09F5ED432B40BA6802FABC
:1009100009F21343C8F80C307B68022B3FF455AF43
:10092000122B3FF452AFD8F800301D407B6803F023
:10093000030303FA09F31D43C8F800507B6813F062
:10094000805FACD000230193284B5A6C42F4804264
:100950005A645B6C03F480430193019BA308991CC8
:10096000204A52F8212004F003018D000F21A940F4
:1009700022EA0102184880453FF45DAF1C498845D2
:100980001AD001F58061884518D001F5806188454D
:1009900016D001F58061884514D001F58061884545
:1009A00012D001F58061884510D001F5806188453D
:1009B0003FF43FAF08213FE701213DE702213BE73C
:1009C000032139E7042137E7052135E7062133E71D
:1009D00003B0BDE8F08300BF000002404887000874
:1009E0000000111000380140003C01400038024076
:1009F0000004024070B5064615460C4651B1012D63
:100A000004D94FF4D071074806F089FB45B9240496
:100A1000B46170BD40F29F11024806F080FBEEE722
:100A2000B46170BD48870008F8B50668346A04F000
:100A30000F07C4F34343C4F30A14022B2ED16CB343
:100A400007EB8702D3000344596C39B305462246AD
:100A5000304602F069FABA003A44D3002B445A6C8B
:100A600022445A64DA6C2244DA6406EB4713D3F862
:100A700010150B4A0A408AB1D3F8002522F08042B3
:100A800042F00042C3F80025BB00D919CA002A442D
:100A900092F8503083F0010382F85030F8BD00BF67
:100AA0000000F81FF0B585B09DF828509DF82C6027
:100AB000BDF8307090F8B842012C41D0012480F884
:100AC000B8424FEA810E8E444FEACE0404444FF000
:100AD000000E84F83DE084F83830A4F8407084F8C3
:100AE000391084F83F6002F07F0E84F83AE012F08B
:100AF000800F1BD101EB810E4FEACE0404444FF06E
:100B0000000E84F83BE0044601EB810E4FEACE0074
:100B1000204480F83C50029701960095206802F02E
:100B20000FFB002384F8B83205B0F0BD01EB810E55
:100B30004FEACE0404444FF0010E84F83BE0E2E7B4
:100B40000220F1E790F8B832012B01D10220704762
:100B500010B50446012380F8B832006802F077FB34
:100B6000002084F8B80210BD002851D0F0B58BB039
:100B700006460368B3F1A04F06D0264A934203D03D
:100B80007A21254806F0CBFA346896F8B932002B62
:100B900038D0032386F8B932E36B13F4807F01D198
:100BA00000233361306802F066F9344654F810EBE4
:100BB0006D460FCC0FC50FCC0FC594E8030085E838
:100BC0000300371D97E80E00704602F009F9012175
:100BD000306802F056F9344654F810EB6D460FCCED
:100BE0000FC50FCC0FC594E8030085E8030097E814
:100BF0000E00704602F016FA012386F8B932002082
:100C00000BB0F0BD86F8B832304606F031FCC0E7D4
:100C1000012070470000044084870008F8B59DF863
:100C20001870BDF820608D000D44EC00044484F879
:100C30003B2084F83F306FB901EB8105EC000444A0
:100C4000032584F84250032B00F29680DFE803F07E
:100C50000A8D2F5E01EB8105EC000444022584F827
:100C60004250F0E7012F40F08780002A40F0848056
:100C700036B901EB8102D3000344012283F85120ED
:100C800001EB8102D300034493F851303BB901EBEF
:100C90008102D3000344002283F842206CE001EB80
:100CA0008102D3000344022283F8422064E0B2B9F7
:100CB00001EB8102D300034493F851303BB901EBBF
:100CC0008102D3000344002283F8422054E001EB68
:100CD0008102D3000344022283F842204CE001EB5E
:100CE0008102D300034493F850303BB901EB8102F9
:100CF000D3000344002283F842203DE001EB81024F
:100D0000D3000344022283F8422035E0B2B901EB5C
:100D10008102D300034493F851303BB901EB8102C7
:100D2000D3000344002283F8422025E001EB810236
:100D3000D3000344022283F842201DE001EB81022C
:100D4000D300034493F850303BB901EB8102D30048
:100D50000344002283F842200EE001EB8102D3001D
:100D60000344022283F8422006E001EB8102D30013
:100D70000344002283F842208A005418E30003440D
:100D8000079C5C649E64002483F85C40DC6483F808
:100D9000391083F85D401144CB0003F13801027C27
:100DA0000144006802F0CEFAF8BD30B583B00546C4
:100DB0000468D4F840340193D4F840340093009B85
:100DC00023F02E030093019B13F0020F07D0019B29
:100DD00013F0010F28D1009B43F002030093019B05
:100DE00013F0080F13D0009B43F008030093019BFE
:100DF00013F0040F34D0AB69022B1CD0EB68012B2D
:100E000029D0284606F08EFB284606F079FB019B88
:100E100013F0200F03D0009B43F020030093009BAE
:100E2000C4F8403403B030BDA36923F00053A3617C
:100E300006F066FBCFE7019B03F4C023B3F5802FD8
:100E400004D00121286802F08BF8DAE70221286833
:100E500002F086F8D5E74EF66022C4F80424D0E705
:100E6000284606F065FBD4F8403423F02E03C4F87E
:100E700040342A68936943F000539361C7E7F8B59B
:100E800006460D46076807EB411707F5A064A368FF
:100E900013F0040F3ED00423A360E36843F0020381
:100EA000E360A36813F4007F6AD1A36813F0010F15
:100EB00000F0878033694BB1AA002A44D300334441
:100EC0009A6C2169C1F31201521ADA64AA002A4409
:100ED000D3003344012283F85D2000219965A2608C
:100EE00093F83F30002B57D0022B55D0032B5DD108
:100EF000D7F8003543F00053C7F8003505EB8502FD
:100F0000D3003344012283F85C202946304606F0A2
:100F100003FB4BE0A36813F0200F02D02023A36053
:100F2000BFE7A36813F0080F17D1A36813F4806F0D
:100F3000B7D0E36843F00203E360006802F087F98A
:100F40001023A36005EB8502D3003344082283F805
:100F50005D204FF48063A360A3E7E36843F00203DE
:100F6000E36001EB8102D3000344052283F85D2096
:100F70001023A3600823A360006802F068F990E7DB
:100F8000E36843F00203E3602946306802F05FF94A
:100F90004FF40073A360F8BDE36843F00203E3601D
:100FA0002946306802F053F91023A360AB005919A9
:100FB000CA00324492F8503083F0010382F8503076
:100FC000F8BDA36813F0020F62D0E36823F00203B8
:100FD000E36005EB8502D300334493F85D30012BC9
:100FE00017D0052B29D0062B2FD0082B2DD0032B63
:100FF00016D105EB8502D3003344022283F85C202E
:10100000D7F8003523F0804343F00043C7F800359C
:1010100006E005EB8502D3003344012283F85C200F
:101020000223A36005EB8502D300334493F85C20D0
:101030002946304606F070FAF8BD05EB8502D3006C
:101040003344052283F85C20EAE7AA002A44D3004F
:1010500033449A6D01329A65032A11D9AA002A44B1
:10106000D300334400229A65042283F85C20D7F829
:10107000003523F0804343F00043C7F80035CFE745
:1010800005EB8502D3003344022283F85C20EEE7AF
:10109000A36813F0800F19D1A36813F0100F14D0B8
:1010A00005EB8502D300334493F83F30032B25D062
:1010B0000BB1022B07D105EB8502D300334400228C
:1010C0009A6533694BB31023A360F8BDE36843F01E
:1010D0000203E360AB005919CA003244916D01313B
:1010E00091652B44DA003244062382F85D302946AC
:1010F000306802F0ACF88023A360F8BD05EB8502F0
:10110000D300334400229A65E36843F00203E360AE
:101110002946306802F09BF8D5E705EB8502D3003D
:101120003344032283F85D20E36843F00203E36065
:101130002946306802F08BF8C5E7F8B5036803EB81
:10114000411303F5A064A26812F0040F11D10E46FA
:101150000546A26812F0200F26D02023A36001EBE1
:101160008102D3001A46034493F83D30012B07D087
:10117000F8BD0423A360E36843F00203E360F8BD15
:101180008B000244002182F83D103344DA0002440F
:10119000022382F85C30E36843F00203E3603146E7
:1011A000006802F054F8F8BDA26812F0400F34D184
:1011B000A26812F4007F4AD1A26812F0010F51D147
:1011C000A26812F0080F62D1A26812F0100F6FD05F
:1011D0008A000A44D300034400229A65032283F85C
:1011E0005D2093F83D306BB901EB8102D3000344DD
:1011F00093F83C3033B901EB8102D3000344012260
:1012000083F83D20E36843F00203E3603146286839
:1012100002F01DF81023A360F8BD8B005918CA0016
:101220000244042182F85D10012182F83D1033440C
:10123000DA00024400239365E36843F00203E360AD
:101240003146006802F003F84023A360F8BDE3686C
:1012500043F00203E360006801F0F9FF4FF400730C
:10126000A360F8BD8F007A18D300034400229A656A
:10127000E36843F00203E360006801F0E8FF012344
:10128000A360B919C800284480F85D30F8BD082370
:10129000A360E36843F00203E360006801F0D7FF56
:1012A00006EB8601C8002844052380F85D30F8BDB0
:1012B000A26812F0800F3AD1A26812F4806F47D171
:1012C000A26812F0020F3FF453AFE26822F002026C
:1012D000E26001EB8101CA001146024492F85D20F0
:1012E000012A49D0032A68D0042A6ED0052A74D076
:1012F000062A01D0082A4AD1B1003144CA002A4442
:10130000916D0131916503296FD9B1003144CA0053
:101310002A4400219165042182F85C10D3F800254D
:1013200022F0804242F00042C3F800252FE0E3683B
:1013300043F00203E360006801F089FF06EB8601D9
:10134000CB002B44062283F85D208023A360F8BDE8
:10135000E36843F00203E360006801F078FF1023C4
:10136000A3604FF48063A36006EB8601CB002B449F
:10137000082283F85D20F8BD0B460344012283F860
:101380005C2093F83F30023BDBB293420CD902233E
:10139000A36006EB8602D3002B4493F85C20314611
:1013A000284606F0B9F8E3E60B46034493F85120CB
:1013B00082F0010283F85120E9E706EB8602D300B0
:1013C0000344022283F85C20E1E706EB8602D300A7
:1013D0000344022283F85C20D9E706EB8602D3009F
:1013E0000344052283F85C20D1E706EB8601CA009E
:1013F0002A44022182F85C1090E7F8B5044605689B
:10140000284601F0A9FD012800D0F8BD206801F0B0
:101410009FFD0028F9D0206801F09AFD10F4001F0C
:1014200003D023684FF400125A61206801F090FD48
:1014300010F4801F03D023684FF480125A61206893
:1014400001F086FD10F0806F03D023684FF08062BA
:101450005A61206801F07CFD10F0020F02D0236871
:1014600002225A61206801F073FD10F0005F28D15C
:10147000206801F06DFD10F0807F34D1206801F00C
:1014800067FD10F0080F32D1206801F061FD10F007
:10149000007F33D1206801F05BFD10F0100F53D0B6
:1014A0000123002BB1D02268936923F010039361CC
:1014B0002046FFF7B9FA2268936943F0100393615D
:1014C000A3E7D5F8403423F02E03C5F84034204676
:1014D00006F01CF80121206801F042FD23684FF05E
:1014E00000525A61C4E72046FFF75FFCC6E720467A
:1014F00006F000F8236808225A61C5E7206801F069
:10150000A1FE0746002604E0F1B22046FFF715FED3
:101510000136A3689E4212D206F00F0327FA03F3A6
:1015200013F0010FF4D005EB4613D3F8003513F494
:10153000004FE9D0F1B22046FFF7A1FCE8E72368AD
:101540004FF000725A61A5E70023AAE738B590F87A
:10155000B832012B01D1022038BD0446012580F8A4
:10156000B852006801F081FC2946206801F037FD7F
:10157000002084F8B80238BD90F8B832012B01D1B0
:101580000220704710B50446012380F8B832006885
:1015900001F084FF002084F8B80210BD08B500688F
:1015A00001F0FEFC08BD01EB8101CB00184490F86E
:1015B0005C00704708B5006801F0BDFD08BD08B5C6
:1015C000006801F0ADFD08BD002800F05D8270B537
:1015D00082B0044603680F2B3DD8236813F0010F37
:1015E0004CD063684BB1B3F5803F06D0B3F5A02F64
:1015F00003D0ED21A24805F092FDA24B9B6803F0B9
:101600000C03042B31D09F4B9B6803F00C03082B79
:1016100026D06368B3F5803F5FD0B3F5A02F62D0CA
:10162000984B1A6822F480321A601A6822F48022D9
:101630001A606368002B60D0FEF7C8FF0546914B27
:101640001B6813F4003F19D1FEF7C0FF401B64284C
:10165000F5D903201DE2E821894805F060FDBCE7CB
:10166000884B5B6813F4800FD3D0864B1B6813F450
:10167000003F03D06368002B00F00882236813F05A
:10168000020F66D0E368012B04D940F21F117C4899
:1016900005F045FD23691F2B3ED87A4B9B6813F05C
:1016A0000C0F44D0774B9B6803F00C03082B39D008
:1016B000E368002B76D00122734B1A60FEF786FF99
:1016C0000546704B1B6813F0020F62D1FEF77EFFD8
:1016D000401B0228F5D90320DBE16A4A136843F472
:1016E00080331360A5E7674B1A6842F480221A60C2
:1016F0001A6842F480321A609BE7FEF767FF0546DE
:10170000604B1B6813F4003FB8D0FEF75FFF401B2F
:101710006428F5D90320BCE14FF49071584805F0D6
:10172000FEFCBAE7574B5B6813F4800FC0D1554BF2
:101730001B6813F0020F04D0E368012B01D00120D5
:10174000A7E1504A136823F0F803216943EAC10373
:101750001360236813F0080F48D06369012B04D984
:101760004FF4B071464805F0DAFC636963B30122B7
:10177000464B1A60FEF72AFF0546424B5B6F13F09B
:10178000020F33D1FEF722FF401B0228F5D90320B8
:101790007FE13C4A136823F0F803216943EAC1035F
:1017A0001360D6E70022384B1A60FEF70FFF05469C
:1017B000344B1B6813F0020FCBD0FEF707FF401B22
:1017C0000228F5D9032064E10022304B1A60FEF7AD
:1017D000FDFE05462B4B5B6F13F0020F06D0FEF7A4
:1017E000F5FE401B0228F5D9032052E1236813F0CF
:1017F000040F00F08580A368012B06D9052B04D0C7
:101800004FF4C6711E4805F08AFC1E4B1B6C13F08A
:10181000805F33D1002301931A4B1A6C42F080523F
:101820001A641B6C03F080530193019B0125184B34
:101830001B6813F4807F2DD0A368012B3ED0052BAD
:1018400042D0104B1A6F22F001021A671A6F22F071
:1018500004021A67A368002B40D0FEF7B7FE0646C5
:10186000084B1B6F13F0020F49D1FEF7AFFE801B30
:1018700041F288339842F3D903200AE10025D6E7E4
:10188000BC8700080038024000004742800E4742F3
:1018900000700040824A136843F480731360FEF7BF
:1018A00095FE06467E4B1B6813F4807FC4D1FEF77D
:1018B0008DFE801B0228F5D90320EAE0794A136FD8
:1018C00043F001031367C5E7764B1A6F42F0040239
:1018D0001A671A6F42F001021A67BBE7FEF776FE3D
:1018E0000646704B1B6F13F0020F08D0FEF76EFE1A
:1018F000801B41F288339842F3D90320C9E00DBB25
:10190000A369022B24D8A369002B00F0C180654A8B
:10191000926802F00C02082A00F08E80022B1DD083
:101920000022614B1A60FEF751FE04465D4B1B68B6
:1019300013F0007F7ED0FEF749FE001B0228F5D988
:101940000320A6E0574A136C23F080531364D7E7B3
:1019500040F2CF11554805F0E2FBD4E7E3693BB113
:10196000B3F5800F04D04FF4EC71504805F0D7FB6D
:10197000236A3F2B28D8636A323BB3F5BF7F29D84F
:10198000A36A022B0AD0042B08D0062B06D0082B02
:1019900004D040F2DB11454805F0C1FBE36A023B8D
:1019A0000D2B1DD80022404B1A60FEF70FFE054696
:1019B0003C4B1B6813F0007F18D0FEF707FE401B5E
:1019C0000228F5D9032064E040F2D911374805F028
:1019D000A6FBD0E74FF4ED71344805F0A0FBCFE74C
:1019E0004FF4EE71314805F09AFBDBE7E369226AB8
:1019F0001343626A43EA8213A26A5208013A43EA35
:101A00000243E26A43EA0263264A53600122264BFC
:101A10001A60FEF7DBFD0446224B1B6813F0007FC3
:101A200006D1FEF7D3FD001B0228F5D9032030E0D4
:101A300000202EE000202CE0012B2CD0194B9B68BD
:101A400003F48001E269914201D0012021E003F01A
:101A50003F02216A8A4201D001201AE0616A47F6FA
:101A6000C0721A408A4201D0012012E003F44032D1
:101A7000A16A8A4201D001200BE003F07063E26AA0
:101A800093420AD0012004E001207047012000E0C9
:101A9000002002B070BD0120FBE70020F9E700BF85
:101AA000007000400038024060004742BC870008D8
:101AB000F8B5314B9B6803F00C03042B59D0082B6D
:101AC00001D02E48F8BD2C4B5A6802F03F025B68EB
:101AD00013F4800F2AD0284B5B68C3F388131E468B
:101AE00000275C010025E41A65EB0705A90141EA1E
:101AF0009461A001001B61EB0501CB0043EA507328
:101B0000C400A01943EB07014B0243EAD05344023F
:101B1000204619460023FEF7ABFB174B5B68C3F367
:101B2000014301335B00B0FBF3F0F8BD124B5B687F
:101B3000C3F388131E4600275C010025E41A65EBF9
:101B40000705A90141EA9461A001001B61EB0501B1
:101B5000CB0043EA5073C400A01943EB07018B028A
:101B600043EA90538402204619460023FEF780FB87
:101B7000D3E70348F8BD00BF003802400024F4005A
:101B800000127A00002800F0F78070B504460D4678
:101B90000368013B0E2B11D8072D15D8784B1B6815
:101BA00003F00F039D4215D9EBB2754A1370136809
:101BB00003F00F039D420DD0012070BD40F2512172
:101BC000704805F0ACFAE7E740F252216D4805F0A5
:101BD000A6FAE3E7236813F0020F2ED013F0040FE8
:101BE00004D0694A936843F4E0539360236813F088
:101BF000080F04D0644A936843F460439360A36879
:101C0000A3B1802B12D0902B10D0A02B0ED0B02BD4
:101C10000CD0C02B0AD0D02B08D0E02B06D0F02B54
:101C200004D040F27521574805F079FA564A936876
:101C300023F0F003A1680B439360236813F0010FB6
:101C40003CD06368032B25D86368012B28D09A1EEB
:101C5000012A2CD94C4A126812F0020F00F08E8033
:101C600049498A6822F0030213438B60FEF7AEFCF9
:101C70000646454B9B6803F00C036268B3EB820F8A
:101C80001CD0FEF7A3FC801B41F288339842F0D9A8
:101C9000032070BD4FF41F713A4805F040FAD3E7B6
:101CA000394A126812F4003FDAD1012070BD364A79
:101CB000126812F0007FD3D1012070BD304B1B6839
:101CC00003F00F039D4209D2EAB22D4B1A701B6834
:101CD00003F00F039D4201D0012070BD236813F073
:101CE000040F19D0E36883B1B3F5805F0DD0B3F56D
:101CF000A05F0AD0B3F5C05F07D0B3F5E05F04D0B2
:101D000040F2BA211F4805F00AFA1F4A936823F4EB
:101D1000E053E1680B439360236813F0080F1AD077
:101D2000236983B1B3F5805F0DD0B3F5A05F0AD00E
:101D3000B3F5C05F07D0B3F5E05F04D040F2C12136
:101D4000104805F0ECF9104A936823F460432169C8
:101D500043EAC1039360FFF7ABFE0B4B9B68C3F3F1
:101D600003130A4AD35CD840094B1860094B186822
:101D700005F018FA002070BD01207047012070BDE9
:101D8000003C0240BC870008003802400890000870
:101D90002C00002004000020014B1868704700BF91
:101DA0002C00002008B5FFF7F7FF044B9B68C3F336
:101DB0008223034AD35CD84008BD00BF00380240EC
:101DC000189000080F2303600B4B9A6802F003027F
:101DD00042609A6802F0F00282609A6802F4E0526F
:101DE000C2609B68DB0803F4E0530361034B1B688C
:101DF00003F00F030B60704700380240003C0240C4
:101E000010B4036A046A24F001040462846924F0B3
:101E1000F00444EA021223F00A030B4382610362D6
:101E20005DF8044B704710B4036A23F0100303629B
:101E30008469036A24F4704444EA023223F0A00364
:101E400043EA0113826103625DF8044B70478368C3
:101E500023F07003194341F00701816070470000CF
:101E60002DE9F04104460F46036A23F001030362A3
:101E7000056AD0F80480866926F073060B681E4355
:101E800025F002058B681D43224B984212D003F5C2
:101E9000806398420ED01F4B9C421BD003F5806399
:101EA0009C4217D0C4F80480A6617B6863632562F6
:101EB000BDE8F081FB6833B1082B04D041F2027118
:101EC000154805F02CF925F00805FB681D4325F0A1
:101ED0000405E0E7BB69B3F5007F00D06BB97B690F
:101EE000B3F5807F00D073B928F440787B6948EA65
:101EF0000308BB6948EA0308D4E741F20F710648BA
:101F000005F00DF9EBE741F21071034805F007F910
:101F1000EAE700BF00000140F48700082DE9F04126
:101F200004460F46036A23F480730362056AD0F8FF
:101F30000480C66926F073060B681E4325F40075FD
:101F40008B6845EA0325234B984212D003F5806342
:101F500098420ED01F4B9C421CD003F580639C42DC
:101F600018D0C4F80480E6617B68E3632562BDE8AD
:101F7000F081FB6833B1082B04D041F29871164808
:101F800005F0CDF825F40065FB6845EA032525F446
:101F90008065DFE7BB69B3F5007F00D06BB97B6973
:101FA000B3F5807F00D073B928F440587B6948EAC4
:101FB0000318BB6948EA0318D3E741F2A571064844
:101FC00005F0ADF8EBE741F2A671034805F0A7F87C
:101FD000EAE700BF00000140F48700082DE9F04166
:101FE00004460F46036A23F480530362056AD0F85F
:101FF0000480C66926F4E6460B6846EA032625F403
:1020000000558B6845EA03350F4B98420BD003F51A
:102010008063984207D0C4F80480E6617B6823643B
:102020002562BDE8F0817B69B3F5807F00D02BB9D4
:1020300028F480487B6948EA8318ECE741F2E471B0
:10204000024805F06CF8F3E700000140F48700084F
:1020500010B504460368264A934237D0B3F1804F47
:1020600034D0A2F57C42934230D002F58062934294
:102070002CD002F58062934228D002F58062934210
:1020800024D002F58062934220D002F57042934240
:102090001CD002F57052934218D002F58062934230
:1020A00014D002F58062934210D0A2F59832934288
:1020B0000CD002F58062934208D002F58062934210
:1020C00004D040F2B9110B4805F029F82268D36812
:1020D00043F00103D3602268936803F00703062BE3
:1020E00003D0136843F001031360002010BD00BF4C
:1020F00000000140F4870008704770477047704740
:10210000704710B5044603681A6912F0020F11D027
:10211000DA6812F0020F0DD06FF002021A6101238B
:10212000037703689B6913F0030F70D0FFF7E6FF96
:102130000023237723681A6912F0040F12D0DA689B
:1021400012F0040F0ED06FF004021A6102232377FD
:1021500023689B6913F4407F5FD02046FFF7CEFFD2
:102160000023237723681A6912F0080F12D0DA6867
:1021700012F0080F0ED06FF008021A6104232377C3
:102180002368DB6913F0030F4ED02046FFF7B6FF3C
:102190000023237723681A6912F0100F12D0DA682F
:1021A00012F0100F0ED06FF010021A61082323777F
:1021B0002368DB6913F4407F3DD02046FFF79EFF84
:1021C0000023237723681A6912F0010F03D0DA681D
:1021D00012F0010F36D123681A6912F0800F03D074
:1021E000DA6812F0800F34D123681A6912F0400FB8
:1021F00003D0DA6812F0400F32D123681A6912F066
:10220000200F03D0DA6812F0200F30D110BDFFF795
:1022100074FF2046FFF773FF8AE72046FFF76DFF44
:102220002046FFF76CFF9BE72046FFF766FF20463E
:10223000FFF765FFACE72046FFF75FFF2046FFF79B
:102240005EFFBDE76FF001021A61204604F04EFF09
:10225000C1E76FF080021A61204600F0A2FDC3E7DB
:102260006FF040021A612046FFF74AFFC5E76FF0A2
:1022700020021A61204600F093FDC7E70368314A47
:10228000904212D0B0F1804F0FD0A2F57C42904224
:102290000BD002F58062904207D002F58062904236
:1022A00003D002F57842904203D123F070034A68CC
:1022B0001343244A90422AD0B0F1804F27D0A2F590
:1022C0007C42904223D002F5806290421FD002F5FA
:1022D000806290421BD002F57842904217D002F5FE
:1022E0007052904213D002F5806290420FD002F5F6
:1022F000806290420BD0A2F59832904207D002F54E
:102300008062904203D002F58062904203D123F4B0
:102310004073CA68134323F080034A691343036080
:102320008B68C3620B688362064B984206D003F544
:102330008063984202D00123436170470B690363B5
:10234000F9E700BF00000140002877D010B504462F
:1023500003683B4A934237D0B3F1804F34D0A2F5A3
:102360007C42934230D002F5806293422CD002F539
:102370008062934228D002F58062934224D002F515
:102380008062934220D002F5704293421CD002F545
:102390007052934218D002F58062934214D002F535
:1023A0008062934210D0A2F5983293420CD002F58D
:1023B0008062934208D002F58062934204D04FF4C9
:1023C0008971204804F0ABFEA36863B1102B0AD0DA
:1023D000202B08D0402B06D0602B04D040F21311E4
:1023E000184804F09CFE236953B1B3F5807F07D0F1
:1023F000B3F5007F04D04FF48A71124804F08FFEC9
:10240000A36933B1802B04D040F215110D4804F0BC
:1024100086FE94F83D305BB1022384F83D30211DE7
:102420002068FFF72BFF012384F83D30002010BD0A
:1024300084F83C30204604F095FEEDE7012070471B
:1024400000000140F4870008002877D010B504464A
:1024500003683B4A934237D0B3F1804F34D0A2F5A2
:102460007C42934230D002F5806293422CD002F538
:102470008062934228D002F58062934224D002F514
:102480008062934220D002F5704293421CD002F544
:102490007052934218D002F58062934214D002F534
:1024A0008062934210D0A2F5983293420CD002F58C
:1024B0008062934208D002F58062934204D040F2D9
:1024C0005E21204804F02BFEA36863B1102B0AD0D4
:1024D000202B08D0402B06D0602B04D040F25F2187
:1024E000184804F01CFE236953B1B3F5807F07D070
:1024F000B3F5007F04D04FF41871124804F00FFEBA
:10250000A36933B1802B04D040F261210D4804F05F
:1025100006FE94F83D305BB1022384F83D30211D66
:102520002068FFF7ABFE012384F83D30002010BD8A
:1025300084F83C302046FFF7DFFDEDE701207047CF
:1025400000000140F48700082DE9F04104460F46E1
:10255000036A23F010030362056AD0F804808669D9
:1025600026F4E6460B6846EA032625F020058B682C
:1025700045EA0315224B984212D003F58063984236
:102580000ED01F4B9C421CD003F580639C4218D098
:10259000C4F80480A6617B68A3632562BDE8F0816E
:1025A000FB6833B1082B04D041F24D71154804F09B
:1025B000B6FD25F08005FB6845EA031525F04005CA
:1025C000DFE7BB69B3F5007F00D06BB97B69B3F57A
:1025D000807F00D073B928F440687B6948EA83089B
:1025E000BB6948EA8308D3E741F25B71054804F010
:1025F00096FDEBE741F25C71024804F090FDEAE7DA
:1026000000000140F487000870B504460D461646E8
:1026100062B1042A0AD0082A08D00C2A06D03C2A23
:1026200004D040F63B516F4804F079FD2B6873B13C
:10263000102B0CD0202B0AD0302B08D0502B06D0DA
:10264000402B04D040F63C51664804F068FDAB686E
:1026500033B1022B04D040F63D51624804F05FFDD7
:1026600094F83C30012B00F0BB80012384F83C300F
:10267000022384F83D300C2E40D8DFE806F0073FF7
:102680003F3F463F3F3F6F3F3F3F90002368564AE2
:1026900093422FD0B3F1804F2CD0A2F57C429342CD
:1026A00028D002F58062934224D002F580629342E2
:1026B00020D002F5784293421CD002F5705293422A
:1026C00018D002F58062934214D002F580629342E2
:1026D00010D0A2F5983293420CD002F5806293425A
:1026E00008D002F58062934204D040F649513D483B
:1026F00004F015FD29462068FFF7B2FB012384F89A
:102700003D30002084F83C0070BD2368364A934277
:102710001FD0B3F1804F1CD0A2F57C42934218D059
:1027200002F58062934214D002F58062934210D089
:1027300002F5784293420CD002F57052934208D0D1
:10274000A2F59432934204D040F65351254804F048
:10275000E6FC29462068FFF7F7FECFE72368224A08
:10276000934217D0B3F1804F14D0A2F57C4293422C
:1027700010D002F5806293420CD002F58062934241
:1027800008D002F57842934204D040F65D511548D6
:1027900004F0C5FC29462068FFF7C0FBAEE72368BC
:1027A000114A934217D0B3F1804F14D0A2F57C4266
:1027B000934210D002F5806293420CD002F5806201
:1027C000934208D002F57842934204D040F6675114
:1027D000044804F0A4FC29462068FFF7FFFB8DE7BE
:1027E000022070BDF48700080000014010B4846826
:1027F00024F47F4442EA032319430C4384605DF8C8
:10280000044B704738B590F83C30012B00F037820C
:102810000D460446012380F83C30022380F83D3009
:102820000B68B3F5805F16D0B3F5005F13D093B19A
:10283000102B10D0202B0ED0302B0CD0402B0AD0D8
:10284000502B08D0602B06D0702B04D041F28B1196
:102850008F4804F064FC2268936823F47F4323F0DC
:10286000770393602B68402B00F0C48149D9702B0B
:1028700000F0128179D8502B00F07181602B40F06C
:102880005B812368834A93421FD0B3F1804F1CD0F1
:10289000A2F57C42934218D002F58062934214D094
:1028A00002F58062934210D002F5784293420CD038
:1028B00002F57052934208D0A2F59432934204D0AC
:1028C00041F2DA11724804F02AFC6B68B3F5004F4C
:1028D00009D043B1022B06D00A2B04D041F2DD11FE
:1028E0006B4804F01CFCEB680F2B00F27D81EA685A
:1028F00069682068FFF797FA60212068FFF7A7FA58
:102900001AE1102B08D004D9202B05D0302B03D08E
:1029100012E1002B40F0108123685E4A93421FD0E1
:10292000B3F1804F1CD0A2F57C42934218D002F53F
:102930008062934214D002F58062934210D002F577
:10294000784293420CD002F57052934208D0A2F51F
:102950009432934204D041F2FD114D4804F0DFFB64
:1029600029682068FFF773FAE6E0B3F5805F4DD081
:10297000B3F5005F40F0E0802368464A934217D0E9
:10298000B3F1804F14D0A2F57C42934210D002F5EF
:10299000806293420CD002F58062934208D002F527
:1029A0007842934204D041F2B611394804F0B7FBA3
:1029B000AB686BB1B3F5805F0AD0B3F5005F07D0A9
:1029C000B3F5405F04D041F2B911314804F0A7FBE0
:1029D0006B68B3F5004F09D043B1022B06D00A2B28
:1029E00004D041F2BA112A4804F099FBEB680F2B8E
:1029F00000F2AF80EB686A68A9682068FFF7F6FE0E
:102A00002268936843F48043936095E02368214AE9
:102A1000934200F09180B3F1804F00F08D80A2F5D9
:102A20007C42934200F0888002F58062934200F07D
:102A3000838002F5806293427ED002F580629342E9
:102A40007AD002F58062934276D002F570429342CA
:102A500072D002F5705293426ED002F580629342BA
:102A60006AD002F58062934266D0A2F59832934212
:102A700062D002F5806293425ED002F5806293429A
:102A80005AD041F29711024804F049FB54E000BFCC
:102A9000F48700080000014023687A4A93421FD05F
:102AA000B3F1804F1CD0A2F57C42934218D002F5BE
:102AB0008062934214D002F58062934210D002F5F6
:102AC000784293420CD002F57052934208D0A2F59E
:102AD0009432934204D041F29E116B4804F01FFBE4
:102AE000AB686BB1B3F5805F0AD0B3F5005F07D078
:102AF000B3F5405F04D041F2A111634804F00FFB2D
:102B00006B68B3F5004F09D043B1022B06D00A2BF6
:102B100004D041F2A2115C4804F001FBEB680F2BDA
:102B200011D8EB686A68A9682068FFF75FFE226821
:102B3000936843F077039360012384F83D300020CD
:102B400084F83C0038BD41F2A3114F4804F0E7FA85
:102B5000E7E741F2BB114C4804F0E1FA4AE7236889
:102B6000484A93421FD0B3F1804F1CD0A2F57C425B
:102B7000934218D002F58062934214D002F580622D
:102B8000934210D002F5784293420CD002F5705275
:102B9000934208D0A2F59432934204D041F2CA1174
:102BA000394804F0BCFA6B68B3F5004F09D043B163
:102BB000022B06D00A2B04D041F2CD11324804F08A
:102BC000AEFAEB680F2B09D8EA6869682068FFF74E
:102BD00017F950212068FFF73AF9ADE741F2CE111D
:102BE000294804F09CFAEFE741F2DE11264804F090
:102BF00096FA7CE62368234A93421FD0B3F1804FB4
:102C00001CD0A2F57C42934218D002F58062934218
:102C100014D002F58062934210D002F578429342BC
:102C20000CD002F57052934208D0A2F59432934230
:102C300004D041F2EA11144804F071FA6B68B3F55C
:102C4000004F09D043B1022B06D00A2B04D041F229
:102C5000ED110D4804F063FAEB680F2B09D8EA6810
:102C600069682068FFF7CCF840212068FFF7EFF88B
:102C700062E741F2EE11044804F051FAEFE7022056
:102C800038BD00BF00000140F487000838B5044695
:102C90000D460368404A93421FD0B3F1804F1CD0C9
:102CA000A2F57C42934218D002F58062934214D080
:102CB00002F58062934210D002F5806293420CD0FC
:102CC00002F58062934208D002F57042934204D02C
:102CD00040F26461314804F022FA2B6893B1102B62
:102CE00010D0202B0ED0302B0CD0402B0AD0502BE4
:102CF00008D0602B06D0702B04D040F265612748C5
:102D000004F00DFA6B68802B01D0002B3CD194F8B5
:102D10003C30012B3ED0012384F83C30022384F860
:102D20003D3021684B688A6823F0700328680343AC
:102D30004B60236818498B421AD0B3F1804F17D0EB
:102D4000A1F57C418B4213D001F580618B420FD0FD
:102D500001F580618B420BD001F578418B4207D0A1
:102D600001F570518B4203D0A1F594318B4204D10F
:102D700022F0800269680A439A60012384F83D309A
:102D8000002084F83C0038BD40F26661034804F03E
:102D9000C6F9BCE7022038BD000001402C880008BD
:102DA00070477047002301330C4A934211D80269DF
:102DB000002AF8DA036943F00103036100230133B9
:102DC000064A934207D8026912F0010FF7D100209A
:102DD0007047032070470320704700BF400D030079
:102DE00084B010B5044603A880E80E00089B012BB0
:102DF0000DD0E36843F04003E3602046FFF7D2FFC5
:102E00000C9B23BBA36B43F48033A36313E0A36B3E
:102E100023F48033A363E36823F4840323F04003A3
:102E2000E360E36823F44013E3600F9B012B09D0B8
:102E30002046FFF7B7FF069B012B0DD0BDE81040E1
:102E400004B07047E36843F48013E360F0E7A36BDA
:102E500023F48033A363EEE7A36843F00603A36083
:102E6000A36843F02003A360E8E7836843F001030D
:102E7000836000207047836823F001038360002093
:102E8000704708B5C36823F0C043C360012909D067
:102E900069B9C36843F08043C3603220FDF79CFBEF
:102EA000002008BDC36843F00053C360F5E701206C
:102EB00008BD0000890141F02001016100230133B8
:102EC000054A934205D8026912F0200FF7D100207D
:102ED00070470320704700BF400D030010230361BB
:102EE00000230133054A934205D8026912F0100FFE
:102EF000F7D1002070470320704700BF400D03004A
:102F000070B49DF80C4064B903339E0807E000EBF1
:102F1000023303F5805351F8045B1D600134B44261
:102F2000F5D3002070BC704703329208002393420F
:102F30000CD210B400F58054246841F8044B0133DE
:102F40009342F7D308465DF8044B70470846704734
:102F50004269806910407047406900F00100704785
:102F600010B400F58064D0F8003423F00303C0F8F7
:102F70000034D0F8003401F003021343C0F80034E9
:102F8000012905D0022907D000205DF8044B7047C5
:102F90004BF680336360F7E741F270736360F3E7E9
:102FA00030B583B0044600250195D0F84034019334
:102FB000019B23F02E030193019B43F48073C0F81F
:102FC00040346420FDF708FB019B23F48073C4F8B0
:102FD00040340A20FDF700FB284603B030BD82B024
:102FE00000230193D0F840340193019B23F02E037A
:102FF0000193019B13F4805F01D101290CD0019B47
:1030000013F4805F05D021B9019B23F48053C0F8ED
:103010004034002002B07047019B43F48053C0F855
:103020004034ECE784B038B5044605A880E80E00CB
:1030300025460023C4F8003EA36B43F40013A363AA
:10304000A36B23F40023A363A36B23F48023A36364
:10305000E36B13F4807F10D0079B032B06D0D4F8CA
:10306000003423F00403C4F800340CE0D4F8003436
:1030700043F00403C4F8003405E0D4F8003423F02E
:103080000403C4F8003410212046FFF713FF204644
:10309000FFF724FF002209E005EB42134FF0FF3158
:1030A000C3F808150021C3F80C150132069B9A429B
:1030B000F2D301212046FFF792FFC820FDF78CFADA
:1030C0000023A3614FF0FF336361E36B13F4807F50
:1030D00017D04FF40073636203F18073A3620D4B4A
:1030E000C4F80031089B1BB9A36943F01003A36126
:1030F000A269094B1343A3610020BDE8384004B026
:1031000070478023636203F5C003A362034BC4F8D6
:103110000031E7E70003E000080020A3E0004000E2
:1031200082B000230193D0F8403401930198C0F39A
:10313000414002B0704700F58060806880B27047FF
:10314000F0B59DF8184000EB411505F5A0664FF06D
:10315000FF37B760032C64D8DFE804F0025502188B
:1031600040F29D47F76012F0800F09D1C76B17F44A
:10317000807F58D0F76847F06007F76000260CE0C2
:10318000F76847F48077F760002606E040F29D6715
:10319000F76012F0800F30D10026D0F8187401F0DB
:1031A0000F014FF0010E0EFA01F13943C0F8181467
:1031B000816941F00071816112F0800F35D10020EA
:1031C0009DF81410022933D000219B0503F0FE5313
:1031D000D20202F4F0421343A20402F44022134349
:1031E000BDF81C20C2F30A02134303430B43C5F886
:1031F0000035032C1FD03046F0BDF76847F48077C8
:10320000F7600026C9E740F22527F76012F0800F2B
:1032100001D10026C1E7F76847F4C077F7600026C0
:10322000BBE70126B9E70026B7E74FF40040C7E740
:103230004FF40031C9E7D5F8003543F00053C5F825
:103240000035D8E700F58060406980B2704710B45F
:1032500000EB411101F5A064D1F80035C3F38143BF
:103260003BB3022B25D0D1F8003543F08043C1F8A1
:103270000035D0F8103413F47F0F49D1D1F8003560
:1032800023F00043C1F80035D1F8003543F0004386
:10329000C1F80035D1F8003523F40043C1F80035FA
:1032A00000230133B3F57A7F27D82268002AF8DBA0
:1032B00023E0D1F8003543F08043C1F80035C36AFC
:1032C00013F47F0F1DD1D1F8003523F00043C1F86E
:1032D0000035D1F8003543F00043C1F80035D1F88E
:1032E000003523F40043C1F8003500230133B3F562
:1032F0007A7F02D82268002AF8DB00205DF8044BB0
:103300007047D1F8003543F00043C1F80035F4E7C9
:10331000D1F8003543F00043C1F80035EDE7000077
:1033200000EB4111064AC1F81025D1F8003523F011
:10333000804343F00043C1F800350020704700BFD0
:1033400000000880F0B583B04B78C46B14F4807F24
:1033500007D00C792CB912B94C79012C11D0012A63
:1033600013D00C69E4B10D892C44013CB4FBF5F495
:10337000A4B2B4F5807F14D92D020D614FF480748E
:103380000FE01946FFF7CCFF75E000EB4314D4F8CB
:103390000C5525F06005C4F80C5500244C71E0E78D
:1033A0000124CD781DB10D8905FB04F50D6100EBFD
:1033B00043130D69C5F31205364F07EAC4442C4385
:1033C0008D7A6D0705F0C0452C43C3F8104512B146
:1033D000CC68C3F8144500F58066B46814F0010F9A
:1033E000D3F8004524F00054C3F80045D3F8004555
:1033F0000CBF4FF0005500252C43C3F80045D3F80F
:103400000055254C2560256825F080452560CC7841
:10341000C4B1214D2C6844F400442C601E4C256836
:1034200045F0004525602468C3F800451ABBCB78F9
:103430000BBB0B69FBB1CA79032A14D8DFE802F091
:10344000081E081E144D2C6824F400442C60E5E787
:103450000333C26A92B2C3F38F03934203D98369E1
:1034600043F020038361CC684A780B8A00210091E5
:103470002146FFF745FD002003B0F0BD033332695C
:1034800092B2C3F38F039342EDD9836943F0806313
:103490008361E8E70000F81FB000002070B5054622
:1034A0000446FFF7E8FC10212846FFF703FD2846F5
:1034B000FFF714FD00220AE004EB4211D1F80035B9
:1034C00023F0802343F08043C1F8003501320F2AF6
:1034D000F2D90020034600E001300F2813D804EB96
:1034E000401606F5A061D6F8002522F4004242F00D
:1034F0004042C6F800250133B3F57A7FECD80A685C
:10350000002AF8DBE8E74FF0FF33C5F814346B61AD
:103510002846FFF7AAFC002070BD0B7803704B789B
:1035200043708B78CA7843EA022343800B79037196
:103530004B7943718B798371CB790A7A43EA022301
:103540000381704708B5D0F87836DB699A78062A87
:1035500001D0002008BDD0F8BC26196A521A998BF8
:103560008A42F6D304229A700223C0F8D43600238C
:103570001A4600F2D461D0F8CC0601F03BFDE8E732
:1035800038B50446D0F87836DD69697869B92978A4
:10359000A1B9D4F87836D86928B104F0E9F8D4F89C
:1035A00078360022DA61002038BD01F0DEFB697850
:1035B000204601F0F0FB00236B70E8E7204601F0A5
:1035C000D4FB2978204601F0E6FB00232B70E0E7CE
:1035D000F0B585B00446D0F87816FF2301220979AA
:1035E00000F0AAFDFF2825D00146204600F060FD2E
:1035F000D4F87856342002F023F8E861D4F878360D
:10360000D96931B3D4F87836DD690723AB7094F803
:1036100020361A2202FB034393F84536012B1DD0B6
:10362000022B24D04D4804F06BF90A2004F080F9F5
:1036300002200CE04A4804F063F9D4F8783619689F
:10364000484804F05DF90A2004F072F9022005B040
:10365000F0BD3422444804F053F9D3E7434804F062
:103660004FF90A2004F064F9414B2B6307E041480D
:1036700004F046F90A2004F05BF93F4B2B6300236A
:10368000AB706B7194F820361A2202FB034393F857
:103690004A36AB7694F8203602FB0343B3F84C3637
:1036A0002B8394F8203602FB034393F84E36AB830A
:1036B000092B01D80A23AB8394F820361A2202FB87
:1036C000034393F84276022F28BF0227002619E011
:1036D0002971204601F04EFB0146687094F81C36B3
:1036E0002A79288B02900320019094F81D060090FF
:1036F000204601F02AFB00226978204603F06AFF89
:103700000136F6B2BE4226D294F82016731C1A2255
:1037100002FB01F202EBC303234493F8421611F0BB
:10372000800FD5D1E970204601F024FB01462870B6
:1037300094F81C36EA78288B02900320019094F8C4
:103740001D060090204601F000FB0022297820464B
:1037500003F040FFD4E7002079E700BFF0880008BD
:1037600068880008748800089C880008C4880008DD
:103770008D3B0008DC880008253C000800B583B0BC
:10378000009100F507734FF40852012101F0D7F9B9
:1037900003B05DF804FB00B583B0009100F507733A
:1037A0004FF40452012101F0CAF903B05DF804FBA3
:1037B00010B5212404740A24447442EA012242828E
:1037C00000218182C1820A4601F088F910BD38B516
:1037D000A12505740125457442EA01224282002296
:1037E00082829DF8102092B2C282194601F076F9C9
:1037F00038BD08B5212303740B23437441B9012359
:10380000438200218182C1820A4601F067F908BD26
:1038100000234382F5E770B50446D0F87836DD69B9
:103820006B79052B3DD8DFE803F0033C14031C2D16
:103830000921FFF7B0FF10B10126304670BD04F535
:10384000077105F12600FFF768FE02236B71012660
:10385000F3E7E98DFFF792FF28BB04236B71012684
:10386000EBE700221146FFF7A3FF18B1032805D0AC
:103870000126E2E705236B710126DEE705236B7164
:103880000126DAE70021FFF7B4FF064608B101265A
:10389000D3E701236B71D4F8C8360221204698473C
:1038A000CBE70126C9E70126C7E700238380C38051
:1038B00083720281016070470346807A28BB012031
:1038C00098720020904220D270B407E000229A72D1
:1038D00019E0013080B22946904211D2DC889D88DF
:1038E000AC42F3D04D1C1E68345D0C70D988013198
:1038F00089B2D9801C89A142EBD10021D980E8E7A7
:1039000000219972104670BC7047002199721046D0
:1039100070470346807A50BB012098720020904285
:1039200025D2F0B408E07EB900229A721DE0013081
:1039300080B22146904215D29D886C1CDE88B4422C
:10394000F2D01F89BC42EED01E684C1C097871551C
:103950009988013189B299801D89A942E7D1002156
:103960009980E4E7002199721046F0BC704700216D
:1039700099721046704770B582B00446D0F8783618
:10398000DD69AB78062B00F29C80DFE803F00417BA
:103990009A9A584466002B6B98470123AB70022318
:1039A000C4F8D43600231A4604F2D461D4F8CC0605
:1039B00001F020FB0026304602B070BD6B692A7E04
:1039C000009200220121FFF702FF064690B1012874
:1039D00019D003281BD00723AB7002260223C4F89A
:1039E000D43600231A4604F2D461D4F8CC0601F090
:1039F00001FBE0E72A8B696905F10800FFF789FF01
:103A00000523AB70EAE70123AB700026E6E7052348
:103A1000AB700026E2E7D0F8BC3613F0010F01D0FE
:103A20000423AB700223C4F8D43600231A4604F2F0
:103A3000D461D4F8CC0601F0DDFA0026BBE76B7840
:103A40002A7E696901F05FF90623AB70D4F8BC36B1
:103A50002B62002685F82460ADE7697803F0A6FDA7
:103A6000012807D06978204603F0A0FD05281FD063
:103A70000026A0E795F824300BB100269BE72A8B9F
:103A8000696905F10800FFF744FF012385F8243038
:103A9000204603F001FB0223C4F8D43600231A4663
:103AA00004F2D461D4F8CC0601F0A4FA002682E72F
:103AB000A97E204601F0DEF8064620B90423AB704B
:103AC00079E7002677E7002675E7000010B5D0F803
:103AD0007836DC69228B0AB9022010BD204904F136
:103AE0000800FFF7E9FE238B984201D0022010BDA9
:103AF00000211C4800F0B8F81B4C607000211B48E6
:103B000000F0B2F8A0700021194800F0ADF8E070A4
:103B10000021184800F0A8F820710021164800F094
:103B2000A3F860710021154800F09EF8A0710021F3
:103B3000134800F099F8E0710021124800F094F861
:103B40002072002408E021460F4800F08DF8064B53
:103B5000234458720134E4B2052CF4D9002010BD7E
:103B6000C07300203C8B0008C87300207C8B0008C9
:103B70001C8B00085C8B0008BC8B0008FC8B0008C9
:103B80009C8B0008DC8B0008FC8A000838B5D0F854
:103B90007836DC69104A0023937053701371D37028
:103BA000937153711372D37104E000250B4A42F8EC
:103BB00023500133012BF8D9238B022B01D9022387
:103BC0002383064B6361502200F5077104F108005E
:103BD000FFF76BFE002038BDC8730020C0730020C3
:103BE00008B5FFF773FF08B9014808BD002008BDFC
:103BF000C87300208378012B07D083792BB9437ACF
:103C0000054AD35C054AD05C7047437A024AD35CCC
:103C1000034AD05C704700BF0C890008F489000893
:103C2000788A000810B5D0F87836DC690C4A002391
:103C3000137053709370D37013710A4A1360238BFF
:103C4000042B01D904232383064B6361282200F54A
:103C5000077104F10800FFF728FE002010BD00BF27
:103C6000D8730020E073002070B40568067A437AA8
:103C700043B18B4238D9426802FB016205EBD205A1
:103C800002F0070600231A4606E0CC08A3420AD237
:103C90002A78D9008A400133416811F0070FF4D027
:103CA000CC080134F2E7F24001238B405C1E224035
:103CB000C468A2421AD30469A2421BD8847A6CB1A8
:103CC0000139012404FA01F10A4207D05B421A4388
:103CD000C369A3420BD003FB02F208E0C369012BC6
:103CE00005D003FB02F202E0002200E000221046B1
:103CF00070BC70470022FAE7002305E003F5D0729C
:103D0000002140F8221001330E2BF7D9002304E0E4
:103D1000C218002182F81C120133B3F5806FF7D36B
:103D200000230370437001228270C0F8BC36027613
:103D300040218171437680F81C3680F81D26184694
:103D4000704708B50378DBB20B2B00D008BDD0F864
:103D50007836002BFAD09B699847F7E770B584B0A6
:103D600004464378072B00F21F81DFE813F00800B8
:103D700031004B007D0087009200C900F50008214A
:103D800000F0FBFE18B10124204604B070BD94F889
:103D90002926A2710125657094F81C3621790292BA
:103DA0000026019694F81D2600928022204600F0FD
:103DB000CCFF94F81C366179A2790292019694F8AE
:103DC0001D2600923246204600F0BFFF2C46DBE75E
:103DD000122100F0D2FE08B10124D5E7B4F82C1668
:103DE000744803F08DFD0A2003F0A2FDB4F82A16F2
:103DF000714803F085FD0A2003F09AFD02236370E9
:103E00000124C1E7012100F002FF08B10124BBE752
:103E1000022003F0F8FB012584F81C562946674868
:103E200003F06EFD0A2003F083FD0323637094F812
:103E30001C362179A27902920026019694F81D265B
:103E400000928022204600F080FF94F81C366179B1
:103E5000A2790292019694F81D26009232462046DD
:103E600000F073FF2C468FE7092100F09FFE002829
:103E700040F09C8004236370012485E7B0F8361677
:103E800000F094FE002840F0938005236370012425
:103E90007AE790F83016F1B100F50775FF232A464E
:103EA00000F09DFE08B101246EE72946444803F066
:103EB00027FD0A2003F03CFD062363700523C4F8A8
:103EC000D43600231A4604F2D461D4F8CC0601F0AB
:103ED00091F8012458E73B4803F012FD0A2003F053
:103EE00027FD062363700523C4F8D43600231A4641
:103EF00004F2D461D4F8CC0601F07CF8012443E745
:103F000090F8311699B100F50775FF232A4600F0A5
:103F100066FE08B1012437E729462B4803F0F0FC80
:103F20000A2003F005FD0723637001242CE72748CE
:103F300003F0E6FC0A2003F0FBFC07236370052373
:103F4000C4F8D43600231A4604F2D461D4F8CC065F
:103F500001F050F8012417E790F8321689B100F506
:103F60000775FF232A4600F03AFE044608B10124F3
:103F70000AE72946164803F0C3FC0A2003F0D8FCE0
:103F800002E7144803F0BCFC0A2003F0D1FC05232F
:103F9000C4F8D43600231A4604F2D461D4F8CC060F
:103FA00001F028F80024EFE60124EDE60124EBE619
:103FB0000124E9E61C8C0008288C0008348C0008D9
:103FC0004C8C0008608C0008748C0008848C0008FD
:103FD000948C0008A88C000838B538B30D46044608
:103FE00080F8C0260023C0F87836C0F87C36FFF78A
:103FF00083FE0DB1C4F8C85600220421102000F041
:1040000095FFC4F8CC060F4A0F4B13604FF4806342
:1040100053611823936121460C4800F011FFC4F846
:10402000D006204603F08AFA002038BD084803F085
:1040300067FC084803F064FC0A2003F079FC0220C6
:1040400038BD00BFE4730020D88C00081945000873
:10405000BC8C0008C48C000808B5C1B10A46D0F871
:104060007C364BB9591CC0F87C1603F5CE7300EBB7
:1040700083004260002008BD0A4803F041FC0A4862
:1040800003F03EFC0A2003F053FC022008BD054863
:1040900003F036FC054803F033FC0A2003F048FC2B
:1040A000022008BDBC8C00081C8E0008388E000859
:1040B00038B590F838368B420AD8194803F020FCFE
:1040C000184803F01DFC0A2003F032FC022038BD22
:1040D00005460C4685F82016134803F011FC0A200B
:1040E00003F026FC1A2303FB045494F843160F48EC
:1040F00003F006FC0A2003F01BFC94F844160C485D
:1041000003F0FEFB0A2003F013FC94F8451609485F
:1041100003F0F6FB0A2003F00BFC002038BD00BFC3
:10412000BC8C0008A08E0008508E0008708E00081D
:10413000808E0008908E000870B4064600200AE0C9
:104140001A2404FB056494F84446944210D0FF2AD4
:104150000ED0441CE0B2012814D805461A2404FBF2
:10416000006494F843468C42EAD0FF29F1D1E7E796
:104170001A2404FB056595F845469C4203D0FF2BA5
:10418000E7D100E0FF2070BC704710B5044603F093
:1041900047FA0121204603F00FFA002010BDC0F8B5
:1041A000BC16704708B5D0F8BC360133C0F8BC3631
:1041B000FFF7C7FD08BD012380F81F3670470023B5
:1041C00080F81F36704790F81F06704730B587B0EB
:1041D000044602238DF81730FFF7F5FF38B923782E
:1041E0002BB12378DBB2032B01D003232370237878
:1041F000DBB20B2B6BD8DFE813F00C0023002A0096
:1042000069016A006D0039018B00A000BB00DD0070
:10421000600194F81E36002B59D001252570C82066
:1042200003F0F1F9204603F00BFAC4F8D45600234A
:104230001A4604F2D461D4F8CC0600F0DBFE46E066
:1042400094F81F36012B42D1022323703FE0A74888
:1042500003F056FB0A2003F06BFB642003F0D3F954
:10426000204603F095F984F81D06052323700021EC
:10427000204600F07FFD60718021204600F07AFD2D
:104280000146207194F81C36A2790292002501950E
:1042900094F81D2600928022204600F056FD94F8E6
:1042A0001C366179A2790292019594F81D2600923C
:1042B0002A46204600F049FD0123C4F8D4362B4697
:1042C0002A4604F2D461D4F8CC0600F093FE002014
:1042D00007B030BD2046FFF741FD0028F7D18448E4
:1042E00003F00EFB0A2003F023FB002384F82036A2
:1042F00094F83336012B02D007232370E7E77D487B
:1043000003F0FEFA0A2003F013FB08232370DEE714
:10431000D4F8C836002BDAD001212046984708236C
:1043200023700523C4F8D43600231A4604F2D4615E
:10433000D4F8CC0600F05EFEC9E794F839162046A2
:1043400000F076FC58B10123C4F8D43600231A4695
:1043500004F2D461D4F8CC0600F04CFEB7E7092390
:104360002370654803F0CCFA0A2003F0E1FAEAE78B
:1043700094F83B3613F0200F0DD10A23237001234C
:10438000C4F8D43600231A4604F2D461D4F8CC061B
:1043900000F030FE9BE70121204600F05AFC002887
:1043A000EDD1564803F0ACFA0A2003F0C1FA0A2313
:1043B0002370E4E7D4F87C363BB30023C4F87836A6
:1043C00053B3D4F87836002B47D09B6820469847E3
:1043D000B8BB06232370D4F878361968484803F030
:1043E0008FFA0A2003F0A4FAD4F8C8360321204635
:1043F00098470523C4F8D43600231A4604F2D46142
:10440000D4F8CC0600F0F6FD61E73E4803F078FAF8
:104410000A2003F08DFAECE703F5CE7204EB82027A
:104420005268117994F84326914202D00133DBB2ED
:10443000C6E703F5CE7204EB82025268C4F8782610
:10444000F4E70D232370D4F8783619682E4803F06A
:1044500057FA0A2003F06CFACBE70D2323702B48A0
:1044600003F04EFA0A2003F063FAC2E7D4F8783674
:1044700063B11B69204698478DF817009DF81730E7
:10448000002B7FF424AF0B23237020E70D23237030
:104490001F4803F035FA1F4803F032FA0A2003F0F0
:1044A00047FA0523C4F8D43600231A4604F2D4612F
:1044B000D4F8CC0600F09EFD09E7D4F87836002B3E
:1044C0003FF405AF5B692046984700E72046FFF7B9
:1044D00013FCD4F87836002B3FF4F9AEDB682046A5
:1044E00098470023C4F87836F1E600BFFC8C00083A
:1044F000108D0008248D00084C8D0008688D000880
:10450000A88D0008888D0008BC8D0008DC8D00088F
:10451000BC8C0008048E000810B504464FF0FF3331
:10452000002204F2D461D4F8CC0600F0B5FD0028D6
:10453000F4D12046FFF74AFEF0E710B504460378B1
:10454000A3B9012380F81E36D0F8C8360BB1042178
:1045500098470123C4F8D43600231A4604F2D461E4
:10456000D4F8CC0600F046FD002010BD90F81F36B0
:10457000012BEED102230370EBE7000010B50446D7
:1045800003F056F82179204600F005FC61792046B9
:1045900000F001FC002384F81E36D4F8C83613B1AD
:1045A0000521204698470C4803F0AAF90A2003F099
:1045B000BFF9204603F034F8032323700123C4F825
:1045C000D43600231A4604F2D461D4F8CC0600F0A5
:1045D00011FD002010BD00BFE48C000808B50123C8
:1045E000C0F8D43600231A4600F2D461D0F8CC06C5
:1045F00000F000FD002008BD10B40B7803704B786C
:1046000043708B78CC7843EA042343800B790371A1
:104610004B7943718B798371CB79C371082A16D991
:104620000B7A4A7A43EA022303818B7ACA7A43EAF5
:10463000022343810B7B4A7B43EA022383818B7BEA
:104640008373CB7BC3730B7C03744B7C43745DF827
:10465000044B70470B7803704B7843708B788370F2
:10466000CB78C3700B7903714B7943718B7983716C
:10467000CB79C3710B7A037270470B7803704B7858
:1046800043708B788370CB78C3700B794A7943EA97
:10469000022383808B79837170474378032B00D08A
:1046A000704710B40478023CA24228BF224694B25C
:1046B000002305E0C218927801F8012B02339BB267
:1046C000A342F7D300230B705DF8044BE8E700002A
:1046D00030B583B00446037E013B0A2B00F2908183
:1046E000DFE813F00B00150050005C009200A00002
:1046F000E900F5002B0139017101427900F1100147
:1047000000F0CAFA02232376012003B030BD4179BC
:1047100002F04CFF012805D0042824D0022822D022
:104720000120F2E7227CE38AA3B112F0800F0ED1C0
:10473000052323760323C4F8D43600231A4604F253
:10474000D461D4F8CC0600F055FC0120DDE703234A
:104750002376EFE712F0800F02D107232376E9E7F3
:1047600009232376E6E70B2323760323C4F8D43604
:1047700000231A4604F2D461D4F8CC0600F03AFCC7
:104780000120C2E7D0F8BC36C381037982898168F1
:1047900000F0A9FA042323760120B6E7017902F09C
:1047A00005FF0546012805D0052D11D0042D1CD08C
:1047B0000120AAE7092323760323C4F8D436002373
:1047C0001A4604F2D461D4F8CC0600F013FCEBE7EF
:1047D0000325C4F8D45600231A4604F2D461D4F851
:1047E000CC0600F007FC28468FE70B232376032333
:1047F000C4F8D43600231A4604F2D461D4F8CC06A7
:1048000000F0F8FB012080E74379828901250095BB
:10481000816800F052FAD4F8BC36E381062323768F
:10482000284672E7417902F0C1FE012807D0052829
:1048300014D0022821D004282ED0012065E70723B8
:1048400023760323C4F8D43600231A4604F2D46135
:10485000D4F8CC0600F0CEFB012056E70C232376DB
:104860000325C4F8D45600231A4604F2D461D4F8C0
:10487000CC0600F0BFFB284647E705232376032339
:10488000C4F8D43600231A4604F2D461D4F8CC0616
:1048900000F0B0FB012038E70B2323760323C4F894
:1048A000D43600231A4604F2D461D4F8CC0600F0C2
:1048B000A1FB022029E703790022114600F013FA38
:1048C000D4F8BC36E3810823237601201DE7017963
:1048D00002F06CFE012805D0042812D005281FD054
:1048E000012012E70D2323760323C4F8D4360023D6
:1048F0001A4604F2D461D4F8CC0600F07BFB002009
:1049000003E70B2323760323C4F8D43600231A4687
:1049100004F2D461D4F8CC0600F06CFB0120F4E67C
:104920000325C4F8D45600231A4604F2D461D4F8FF
:10493000CC0600F05FFB2846E7E6437901250095A9
:104940000022114600F0B9F9D4F8BC36E3810A23FD
:1049500023762846D9E6417902F028FE012805D0C1
:10496000022812D004281FD00120CEE60D23237682
:104970000323C4F8D43600231A4604F2D461D4F8D1
:10498000CC0600F037FB0020BFE609232376032383
:10499000C4F8D43600231A4604F2D461D4F8CC0605
:1049A00000F028FB0120B0E60B2323760323C4F894
:1049B000D43600231A4604F2D461D4F8CC0600F0B1
:1049C00019FB0120A1E6437E0133DBB24376022BC3
:1049D00010D9D0F8C83606219847002363760948D5
:1049E00002F08EFF084802F08BFF0A2002F0A0FFC1
:1049F00002208AE602F01CFE01202076A07084E6E8
:104A0000012082E6BC8C0008C08E000803780A886A
:104A100013440B800378184470472DE9F04182B0AD
:104A20000B7803704B7843708B78CC7843EA04237F
:104A300043800B7903714B7943718B798371CB7907
:104A4000C3710B7A0372092A45D905460923ADF8CB
:104A500006300C460026012E3DD86A88BDF8063087
:104A60009A4238D90DF106012046FFF7CFFF0446E0
:104A70004378042BEFD1B0461A2000FB06F0083033
:104A8000284421460230FFF7E5FD00271A2303FBE7
:104A900008539B7B9F421BD26A88BDF806309A421E
:104AA00016D90DF106012046FFF7B0FF0446437802
:104AB000052BEBD101371A2000FB08F000EBC700F3
:104AC0000830284421460430FFF7D7FDFFB2DDE768
:104AD0000136F6B2BFE702B0BDE8F08138B5044652
:104AE0008378012B03D0022B14D0012510E08160C4
:104AF000828101250576022383700323C0F8D43612
:104B000000231A4600F2D461D0F8CC0600F072FA05
:104B1000284638BDFFF7DCFD054630B1032809D033
:104B20000228F5D10122A270F2E70122A270002230
:104B30002276EDE70122A27000222276E8E738B55E
:104B4000BDF810508478012C04D02A461946FFF78E
:104B5000C5FF38BD61F07F040474062141744282B0
:104B600002F47F44B4F5407F03D000228282C582E4
:104B7000EBE740F209428282F9E7F0B583B00446E0
:104B800000F507750E4600912B464FF48072002108
:104B9000FFF7D5FF074610B1384603B0F0BD3246E7
:104BA000294604F22260FFF727FDF5E7F0B583B050
:104BB00004460E4600F11C0500912B464FF400728E
:104BC0000021FFF7BCFF074610B1384603B0F0BD27
:104BD0003246294604F23460FFF71FFFF5E7F0B5CF
:104BE00083B017461D4600F507740093234641F431
:104BF00040720021FFF7A3FF064610B1304603B014
:104C0000F0BD2A4639462046FFF747FDF6E708B5CE
:104C10008378012B04D000221146FFF75FFF08BD07
:104C2000002303740522427441828382C382F2E727
:104C300008B58378012B04D000221146FFF74EFF00
:104C400008BD002303740922427441828382C38217
:104C5000F2E708B58378012B04D000221146FFF754
:104C60003DFF08BD00230374032242744182838206
:104C7000C382F2E708B58378012B04D000221146E5
:104C8000FFF72CFF08BD02230374012343740023A4
:104C900043828182C382F1E730B585B01546002496
:104CA0000394082302930191009423462246294647
:104CB00002F0E9FC204605B030BD30B585B00C46A9
:104CC00019469DF8203090F81D5605B10023039336
:104CD000029201940123009300231A4602F0D3FCB0
:104CE000002005B030BD30B585B01D4600240394CA
:104CF00002920191012200922346294602F0C3FC50
:104D0000204605B030BD30B585B01D460024039463
:104D100002920191012200920323294602F0B3FC82
:104D2000204605B030BD00230A2B0BD803F5D07206
:104D300050F8222012F4004F02D00133DBB2F3E727
:104D400098B270474FF6FF70704710B584B0BDF849
:104D5000204002949DF81C4001949DF81840009456
:104D600002F076FC002004B010BD08B502F083FC10
:104D7000002008BD38B505460C46FFF7D4FF4FF6B6
:104D8000FF73984205D044F4004400F5D07345F811
:104D90002340C0B238BD0A2907D801F5D07150F8B8
:104DA0002130C3F30E0340F821300020704700008B
:104DB000EFF305839BB9EFF310839BB90C4B1B6892
:104DC000022B05D08BB90122094B1A6000207047D5
:104DD000EFF31182002AF5D06FF0050070476FF0F5
:104DE000050070476FF0050070474FF0FF307047C7
:104DF0001811002008B5EFF30583B3B9EFF3108362
:104E0000B3B90E4B1B68022B08D0012B13D1022221
:104E10000A4B1A6001F0A8FA002008BDEFF31182D6
:104E2000002AF2D06FF0050008BD6FF0050008BD44
:104E30006FF0050008BD4FF0FF3008BD18110020CD
:104E4000F0B587B000240494EFF3058454BBEFF36E
:104E500010833BBB344B1B68022B26D010B30023BE
:104E60008DF81730002A32D016681EB3946904B941
:104E70001824631E372B52D8536813F0010F50D1FA
:104E80005369D3B14FEA930E95682DB1D768632F5C
:104E900002D9176907B10BBB95B14FF0FF35012D52
:104EA00023D075B3049807B0F0BDEFF31183002B46
:104EB000F8D1D3E70DF11706D8E74FF4806EE3E79A
:104EC000D3686BB9136973B14FF0FF35E7E700257D
:104ED00018244FF4806E0DF11706E0E70125DEE798
:104EE0004FF0FF35DBE70025D9E71369926802929E
:104EF000019300940B467246314601F0C9F90490C3
:104F0000D0E704AA019200940B461FFA8EF23146B4
:104F100001F0F7F90128C5D000230493C2E700206F
:104F2000C1E70020BFE700BF1811002030B583B0F3
:104F3000EFF30583002B53D1EFF31083002B51D1F6
:104F40002B4B1B68022B21D000284DD000294DD0BF
:104F500072B393684BB1D4684F2C06D9146924B14D
:104F6000556901FB00F4A54224D2ABB14FF0FF33E9
:104F70001446012B25D063B3002525B174B32168F5
:104F8000284600F0C3FF284603B030BDEFF311837D
:104F9000002BD9D00025F6E7D3686BB9136913B19C
:104FA0004FF0FF33E4E753694BB14FF0FF33DFE7D6
:104FB0000023DDE70123DBE74FF0FF33D8E70023D1
:104FC000D6E7002300939368126900F0EAFC0546D7
:104FD000D3E7002200F035FD0546CEE70021CFE7FC
:104FE0000025D0E70025CEE70025CCE70025CAE75D
:104FF0001811002010B582B01C46EFF30583B3B939
:10500000EFF310839BB9224B1B68022B0BD0A0B38C
:10501000B1B30023224600F03BFD012833D0A4B3F6
:105020006FF0010019E0EFF31183002BEFD0B0B166
:10503000C1B1D4B9002302AA42F8043D00F0ECFD4E
:10504000012815D1019BB3B14FF08052114B1A606A
:10505000BFF34F8FBFF36F8F002002B010BD6FF012
:105060000300FAE76FF00300F7E76FF00300F4E7DF
:105070006FF00200F1E70020EFE76FF00300ECE7CC
:105080006FF00300E9E70020E7E76FF00200E4E7D4
:105090001811002004ED00E010B582B01C46EFF3BB
:1050A0000583ABB9EFF3108393B9224B1B68022B36
:1050B0000AD098B3A9B3224600F01EFE012833D0CF
:1050C000A4B36FF0010019E0EFF31183002BF0D0CF
:1050D000B0B1C1B1D4B902AA002342F8043D00F036
:1050E000B9FE012815D1019BB3B14FF08052124B8C
:1050F0001A60BFF34F8FBFF36F8F002002B010BD57
:105100006FF00300FAE76FF00300F7E76FF00300BA
:10511000F4E76FF00200F1E70020EFE76FF0030023
:10512000ECE76FF00300E9E70020E7E76FF002002B
:10513000E4E700BF1811002004ED00E0034B03601A
:10514000034B0B604FF4806313607047B410002072
:10515000B4000020034B0360034B0B604FF400636B
:10516000136070471C3100201C11002000F108035F
:1051700043604FF0FF328260C3600361002303602D
:10518000704700230361704743684B609A688A60E8
:105190009A68516099600861036801330360704741
:1051A00030B40D68B5F1FF3F02D000F1080202E013
:1051B000026904E01A4653681C68A542FAD2536893
:1051C0004B6099608A605160086103680133036035
:1051D00030BC7047036942688168916082684168A9
:1051E00051605A68904206D0002202611A68013A62
:1051F0001A601868704782685A60F5E782B0002329
:1052000001930D4B1B68B3F1FF3F08D04FF05003E3
:1052100083F31188BFF36F8FBFF34F8FFEE74FF01B
:10522000500383F31188BFF36F8FBFF34F8F019B40
:10523000002BFCD002B0704728000020084800680E
:10524000006880F308884FF0000080F3148862B68D
:1052500061B6BFF34F8FBFF36F8F00DF00BF000059
:1052600008ED00E0DFF80C00016841F47001016016
:105270007047000088ED00E04FF0807340F8043C78
:1052800021F0010140F8081C054B40F80C3C40F8A7
:10529000202C6FF0020340F8243C4438704700BFD4
:1052A000FD510008000000000000000000000000A8
:1052B000074B19680868B0E8F04F80F30988BFF31E
:1052C0006F8F4FF0000080F311887047AFF30080BC
:1052D000A06D00204FF0500383F31188BFF36F8F50
:1052E000BFF34F8F0A4A136801331360012B0DD1AE
:1052F000084B1B6813F0FF0F08D04FF0500383F3E7
:105300001188BFF36F8FBFF34F8FFEE7704700BF69
:105310002800002004ED00E0094B1B6843B94FF062
:10532000500383F31188BFF36F8FBFF34F8FFEE7F6
:10533000013B034A13600BB983F31188704700BF28
:105340002800002000000000000000000000000015
:10535000EFF30980BFF36F8F154B1A681EF0100F23
:1053600008BF20ED108A20E9F04F10602DE90900F8
:105370004FF0500080F31188BFF34F8FBFF36F8F52
:1053800001F086F94FF0000080F3118809BC19681C
:105390000868B0E8F04F1EF0100F08BFB0EC108A9C
:1053A00080F30988BFF36F8F704700BFAFF30080B1
:1053B000A06D002008B54FF0500383F31188BFF3B0
:1053C0006F8FBFF34F8F01F02DF818B14FF080525F
:1053D000024B1A60002383F3118808BD04ED00E03E
:1053E000084A0023136008490B60084B1B680849F2
:1053F000A1FB03139B09013B06490B6007231360C4
:10540000704700BF10E000E018E000E02C00002032
:10541000D34D621014E000E03A4B1A683A4B9A42BE
:1054200008D14FF0500383F31188BFF36F8FBFF3A0
:105430004F8FFEE7334B1A68344B9A4208D14FF036
:10544000500383F31188BFF36F8FBFF34F8FFEE7D5
:1054500010B582B02E4B1A78D2B20192FF221A7088
:105460001B78DBB28DF803309DF8033003F0500356
:10547000284A13700722284B1A6009E0264A13684D
:10548000013B13609DF803305B00DBB28DF8033005
:105490009DF8033013F0800FF0D11F4B1B68032BD6
:1054A00008D04FF0500383F31188BFF36F8FBFF321
:1054B0004F8FFEE71B0203F4E063174A1360019B62
:1054C000DBB2134A1370154B1A6842F470021A606B
:1054D0001A6842F070421A60FFF782FF0024104BF6
:1054E0001C60FFF7BFFE0F4A136843F04043136090
:1054F000FFF7A4FE01F0CCF8FFF780FE204602B0D3
:1055000010BD00BF00ED00E071C20F4170C20F413D
:1055100000E400E0803100208431002020ED00E034
:105520002800002034EF00E0EFF305830F2B0FD9A4
:10553000104A9B5CDBB2104A1278934208D24FF0BB
:10554000500383F31188BFF36F8FBFF34F8FFEE7D4
:105550000A4B1B6803F4E063094A1268934208D9B6
:105560004FF0500383F31188BFF36F8FBFF34F8F5A
:10557000FEE77047F0E300E0803100200CED00E032
:1055800084310020124A12F0070F1ED0D11D21F0E5
:105590000701C1F5705313440A460E48026000210A
:1055A00041601344083B23F007030B480360596034
:1055B0001960991A51601360084B1960084B196003
:1055C0004FF00042074B1A6070474FF47053E4E706
:1055D0008C310020986D002088310020946D0020CF
:1055E000906D00208C6D002010B4134B1A6882421D
:1055F0001BD359685C18A04203D14068014459602C
:10560000184641684418A24213D10C4C2468A242A7
:105610000DD05268114441601A68126802609842C5
:1056200000D018605DF8044B70471346DEE7046055
:10563000F5E70260F3E700BF986D00208831002095
:1056400070B5044600F0E0FE3C4B1B68BBB13C4B20
:105650001B681C4264D1ACB1083414F0070F11D0A0
:1056600024F00704083404F007035BB14FF0500343
:1056700083F31188BFF36F8FBFF34F8FFEE7FFF700
:1056800081FFE4E7002C4DD02E4B1B689C424BD889
:105690002D4B1D6801E02B4615466A68944202D9DD
:1056A0002A68002AF7D1254A126895423ED01E6822
:1056B00008362A681A606B681B1B102B10D9281932
:1056C00010F0070F08D04FF0500383F31188BFF399
:1056D0006F8FBFF34F8FFEE743606C60FFF784FF6F
:1056E0006A6818490B689B1A0B60184909688B4255
:1056F00001D216490B60124B1B6813436B600023E9
:105700002B6000F01FFF9EB116F0070F13D04FF073
:10571000500383F31188BFF36F8FBFF34F8FFEE702
:105720000026EEE70026ECE70026EAE70026E8E799
:1057300001F07CFBE8E7304670BD00BF88310020F7
:105740008C6D0020906D0020986D0020946D0020DD
:1057500080B338B50446A0F1080550F8042C16496A
:1057600009680A4208D14FF0500383F31188BFF350
:105770006F8FBFF34F8FFEE750F8080C40B14FF02A
:10578000500383F31188BFF36F8FBFF34F8FFEE792
:1057900022EA010244F8042C00F036FE54F8041CFE
:1057A000064A13680B4413602846FFF71DFF00F0FC
:1057B000C9FE38BD704700BF8C6D0020906D002081
:1057C00010B50446FFF786FDA26BE36B9A4204D046
:1057D0000024FFF7A1FD204610BD0124F9E710B514
:1057E0000446FFF777FDA36B23B10024FFF794FD78
:1057F000204610BD0124F9E770B504461646856BB6
:10580000026C4AB9036853BB406801F09BF800235F
:1058100063600135A56370BD6EB9806801F0B0FFAB
:10582000226CA3681344A3606268934219D323686F
:10583000A3600020EDE7C06801F0A2FF236C5B428B
:10584000E2681A44E26021688A4202D26268134424
:10585000E360022E07D145B1013D0020D9E70020C9
:10586000D7E70020D5E70020D3E70020D1E7026C7E
:1058700072B110B50346C4681444C46040688442E1
:1058800001D31868D8600846D96801F079FF10BDC7
:10589000704738B50546FFF71DFD95F8454064B2E1
:1058A00001E0013C64B2002C0ADD6B6A43B105F1F2
:1058B000240000F09FFF0028F3D001F02DF8F0E75E
:1058C000FF2385F84530FFF727FDFFF703FD95F827
:1058D000444064B201E0013C64B2002C0ADD2B6953
:1058E00043B105F1100000F085FF0028F3D001F06E
:1058F00013F8F0E7FF2385F84430FFF70DFD38BDBE
:1059000038B530B304460D46FFF7E4FC2168E26B7E
:10591000236C03FB021060600020A063A160013AC9
:1059200002FB0313E360FF2384F8443084F845301E
:10593000C5B92369F3B104F1100000F05BFFC8B1F1
:105940004FF080520D4B1A60BFF34F8FBFF36F8F34
:1059500010E04FF0500383F31188BFF36F8FBFF354
:105960004F8FFEE704F11000FFF700FC04F1240064
:10597000FFF7FCFBFFF7D0FC012038BD04ED00E091
:1059800038B51D46049C0B4649B12260E063236490
:1059900001212046FFF7B4FF84F84C5038BD246045
:1059A000F4E740B94FF0500383F31188BFF36F8FD2
:1059B000BFF34F8FFEE710B584B0044663B1A2B1C8
:1059C000A9B10120A8B94FF0500383F31188BFF3A8
:1059D0006F8FBFF34F8FFEE74FF0500383F31188B3
:1059E000BFF36F8FBFF34F8FFEE70120EAE7002080
:1059F000E8E70AB901B1002040B94FF0500383F342
:105A00001188BFF36F8FBFF34F8FFEE750200390D5
:105A10000398502808D04FF0500383F31188BFF348
:105A20006F8FBFF34F8FFEE720461C46012384F89B
:105A3000463000949DF81830FFF7A2FF204604B0CE
:105A400010BD40B94FF0500383F31188BFF36F8F3F
:105A5000BFF34F8FFEE7F0B583B0064611B101FBEF
:105A600000F000E0002017460C465030FFF7E8FD3C
:105A7000054650B1002380F8463000903B4600F1C7
:105A8000500221463046FFF77BFF284603B0F0BDA9
:105A9000F0B585B0019260B1044699B10125BDB958
:105AA0004FF0500383F31188BFF36F8FBFF34F8F15
:105AB000FEE74FF0500383F31188BFF36F8FBFF3FE
:105AC0004F8FFEE7026C0AB90125E8E70025E6E7FB
:105AD000022B09D06DB94FF0500383F31188BFF347
